{
  "transactions": [
    {
      "hash": "0x8d6ccfb92323e33e8a7d0edf33c050206f9ff87236dc74d1a7cc2034bfc70645",
      "transactionType": "CALL",
      "contractName": null,
      "contractAddress": "0x1468386e6abb1874c0d9fd43899ebd21a12470a6",
      "function": "register(string,address)",
      "arguments": [
        "small",
        "0x522F3038F78d91dADA58F8A768be7611134767D5"
      ],
      "transaction": {
        "from": "0xdead83fa2254aab3689d7d70c48500648f407b5c",
        "to": "0x1468386e6abb1874c0d9fd43899ebd21a12470a6",
        "gas": "0x3de72",
        "value": "0x0",
        "input": "0x1e59c5290000000000000000000000000000000000000000000000000000000000000040000000000000000000000000522f3038f78d91dada58f8a768be7611134767d50000000000000000000000000000000000000000000000000000000000000005736d616c6c000000000000000000000000000000000000000000000000000000",
        "nonce": "0x8",
        "chainId": "0x12c1"
      },
      "additionalContracts": [],
      "isFixedGasLimit": false
    }
  ],
  "receipts": [
    {
      "status": "0x1",
      "cumulativeGasUsed": "0x35092",
      "logs": [
        {
          "address": "0x41fb196ae7d65e06880a240c8d1b91245fb84807",
          "topics": [
            "0x65412581168e88a1e60c6459d7f44ae83ad0832e670826c05a4e2476b57af752",
            "0xdcc6f2619ad20676222ca569cc80888fc366db3822b60c4001e8a0f9ae503757"
          ],
          "data": "0x00000000000000000000000000000000000000000000000000000000800012c100000000000000000000000000000000000000000000000000000000000000400000000000000000000000000000000000000000000000000000000000000014522f3038f78d91dada58f8a768be7611134767d5000000000000000000000000",
          "blockHash": "0xbea6b79501199d3741c13c8bab0961da42ec5a0bdc6d1e9d7b0decf6e3f4fad4",
          "blockNumber": "0xedfbb2",
          "transactionHash": "0x8d6ccfb92323e33e8a7d0edf33c050206f9ff87236dc74d1a7cc2034bfc70645",
          "transactionIndex": "0x1",
          "logIndex": "0x0",
          "removed": false
        },
        {
          "address": "0x41fb196ae7d65e06880a240c8d1b91245fb84807",
          "topics": [
            "0x65412581168e88a1e60c6459d7f44ae83ad0832e670826c05a4e2476b57af752",
            "0xdcc6f2619ad20676222ca569cc80888fc366db3822b60c4001e8a0f9ae503757"
          ],
          "data": "0x000000000000000000000000000000000000000000000000000000000000003c00000000000000000000000000000000000000000000000000000000000000400000000000000000000000000000000000000000000000000000000000000014522f3038f78d91dada58f8a768be7611134767d5000000000000000000000000",
          "blockHash": "0xbea6b79501199d3741c13c8bab0961da42ec5a0bdc6d1e9d7b0decf6e3f4fad4",
          "blockNumber": "0xedfbb2",
          "transactionHash": "0x8d6ccfb92323e33e8a7d0edf33c050206f9ff87236dc74d1a7cc2034bfc70645",
          "transactionIndex": "0x1",
          "logIndex": "0x1",
          "removed": false
        },
        {
          "address": "0x41fb196ae7d65e06880a240c8d1b91245fb84807",
          "topics": [
            "0x52d7d861f09ab3d26239d492e8968629f95e9e318cf0b73bfddc441522a15fd2",
            "0xdcc6f2619ad20676222ca569cc80888fc366db3822b60c4001e8a0f9ae503757"
          ],
          "data": "0x000000000000000000000000522f3038f78d91dada58f8a768be7611134767d5",
          "blockHash": "0xbea6b79501199d3741c13c8bab0961da42ec5a0bdc6d1e9d7b0decf6e3f4fad4",
          "blockNumber": "0xedfbb2",
          "transactionHash": "0x8d6ccfb92323e33e8a7d0edf33c050206f9ff87236dc74d1a7cc2034bfc70645",
          "transactionIndex": "0x1",
          "logIndex": "0x2",
          "removed": false
        },
        {
          "address": "0x41fb196ae7d65e06880a240c8d1b91245fb84807",
          "topics": [
            "0xddf252ad1be2c89b69c2b068fc378daa952ba7f163c4a11628f55a4df523b3ef",
            "0x0000000000000000000000000000000000000000000000000000000000000000",
            "0x000000000000000000000000522f3038f78d91dada58f8a768be7611134767d5",
            "0xdcc6f2619ad20676222ca569cc80888fc366db3822b60c4001e8a0f9ae503757"
          ],
          "data": "0x",
          "blockHash": "0xbea6b79501199d3741c13c8bab0961da42ec5a0bdc6d1e9d7b0decf6e3f4fad4",
          "blockNumber": "0xedfbb2",
          "transactionHash": "0x8d6ccfb92323e33e8a7d0edf33c050206f9ff87236dc74d1a7cc2034bfc70645",
          "transactionIndex": "0x1",
          "logIndex": "0x3",
          "removed": false
        },
        {
          "address": "0x41fb196ae7d65e06880a240c8d1b91245fb84807",
          "topics": [
            "0xce0457fe73731f824cc272376169235128c118b49d344817417c6d108d155e82",
            "0x845a83ab53ac6ecc78567b33d582380aaa9019fe2ce056921144cb0badfb851d",
            "0xf00823a6fe48d9c71dc2b4d2f3b4219594f94b23311d1b5044b2af8f1154d8fc"
          ],
          "data": "0x000000000000000000000000522f3038f78d91dada58f8a768be7611134767d5",
          "blockHash": "0xbea6b79501199d3741c13c8bab0961da42ec5a0bdc6d1e9d7b0decf6e3f4fad4",
          "blockNumber": "0xedfbb2",
          "transactionHash": "0x8d6ccfb92323e33e8a7d0edf33c050206f9ff87236dc74d1a7cc2034bfc70645",
          "transactionIndex": "0x1",
          "logIndex": "0x4",
          "removed": false
        },
        {
          "address": "0x41fb196ae7d65e06880a240c8d1b91245fb84807",
          "topics": [
            "0x54dcb73b69bb8751ea76a9869fb42238e1a04b363c9c1d076a03799c5c8da6f7",
            "0xdcc6f2619ad20676222ca569cc80888fc366db3822b60c4001e8a0f9ae503757"
          ],
          "data": "0x0000000000000000000000000000000000000000000000000000000000000040000000000000000000000000522f3038f78d91dada58f8a768be7611134767d5000000000000000000000000000000000000000000000000000000000000001505736d616c6c096f6e6c7964616e6b7303657468000000000000000000000000",
          "blockHash": "0xbea6b79501199d3741c13c8bab0961da42ec5a0bdc6d1e9d7b0decf6e3f4fad4",
          "blockNumber": "0xedfbb2",
          "transactionHash": "0x8d6ccfb92323e33e8a7d0edf33c050206f9ff87236dc74d1a7cc2034bfc70645",
          "transactionIndex": "0x1",
          "logIndex": "0x5",
          "removed": false
        },
        {
          "address": "0x1468386e6abb1874c0d9fd43899ebd21a12470a6",
          "topics": [
            "0x1c6eac0e720ec22bb0653aec9c19985633a4fb07971cf973096c2f8e3c37c17f",
            "0xf00823a6fe48d9c71dc2b4d2f3b4219594f94b23311d1b5044b2af8f1154d8fc",
            "0x000000000000000000000000522f3038f78d91dada58f8a768be7611134767d5"
          ],
          "data": "0x",
          "blockHash": "0xbea6b79501199d3741c13c8bab0961da42ec5a0bdc6d1e9d7b0decf6e3f4fad4",
          "blockNumber": "0xedfbb2",
          "transactionHash": "0x8d6ccfb92323e33e8a7d0edf33c050206f9ff87236dc74d1a7cc2034bfc70645",
          "transactionIndex": "0x1",
          "logIndex": "0x6",
          "removed": false
        }
      ],
      "logsBloom": "0x00000000000000000000004000000100000000000000000000000000100000000000000000000000000100000000001000000000200010000000000000000000000000000000000008004008000000000000000044000000000000000000000000000000020000000000100040000800000000140100000000000010000000400040000000000004001000000000000000000000000004000000000000000000000000000002010008000000040000000000000000000000000000048000000000100002000000000000002000004000040000000000000000000001000020000000000000100000000000000000000000000000000000000000000000000000",
      "type": "0x2",
      "transactionHash": "0x8d6ccfb92323e33e8a7d0edf33c050206f9ff87236dc74d1a7cc2034bfc70645",
      "transactionIndex": "0x1",
      "blockHash": "0xbea6b79501199d3741c13c8bab0961da42ec5a0bdc6d1e9d7b0decf6e3f4fad4",
      "blockNumber": "0xedfbb2",
      "gasUsed": "0x2a53b",
      "effectiveGasPrice": "0xfb",
      "from": "0xdead83fa2254aab3689d7d70c48500648f407b5c",
      "to": "0x1468386e6abb1874c0d9fd43899ebd21a12470a6",
      "contractAddress": null,
      "l1BaseFeeScalar": "0x558",
      "l1BlobBaseFee": "0xdda7ed5",
      "l1BlobBaseFeeScalar": "0xc5fc5",
      "l1Fee": "0x5e3167f7b",
      "l1GasPrice": "0xaf4628d5",
      "l1GasUsed": "0x640"
    }
  ],
  "libraries": [],
  "pending": [],
  "returns": {},
  "timestamp": 1751740357,
  "chain": 4801,
  "commit": "81b4801"
}